:100000000C945E000C9486000C9486000C94860080
:100010000C9486000C9486000C9486000C94800A44
:100020000C9486000C9486000C9486000C94860038
:100030000C9486000C9486000C9486000C94860028
:100040000C94360A0C9486000C94020B0C94DC0A77
:100050000C9486000C9486000C9486000C94860008
:100060000C9417090C94860000000000240027005F
:100070002A0000000008000201000003040700003D
:10008000000000000000010204081020408001026E
:1000900004081020010204081020000000002500C0
:1000A00028002B00040404040404040402020202D5
:1000B00002020303030303030200340B11241FBED7
:1000C000CFEFD8E0DEBFCDBF14E0A0E0B1E0ECE4BC
:1000D000FAE202C005900D92A432B107D9F725E0EB
:1000E000A4E2B4E001C01D92AD3DB207E1F710E01B
:1000F000CEE5D0E004C02197FE010E942C13CD353F
:10010000D107C9F70E947D0B0C9424150C940000B4
:100110002091C604260F3327331F21323105ECF41A
:100120002091EC04FC0190E080E0243069F082E052
:100130000895A091C6042191AC014C555B4FA40FCA
:10014000B52FB11D2C930196861798F38091C604A4
:10015000680F6093C60480E0089581E008950895D3
:1001600008950895E0919B0480919A04E81730F473
:10017000F0E0E658FB4F808190E008958FEF9FEF0D
:10018000089590919B0480919A042FEF3FEF981768
:1001900048F4E92FF0E0E658FB4F208130E09F5F04
:1001A00090939B04C901089580919A0490919B04B7
:1001B000891B990B0895CF92DF92EF92FF920F93D4
:1001C0001F93CF93DF937C01CB018A0120917904A7
:1001D000222389F0EB016B01C40ED51ECC15DD0581
:1001E00069F06991D701ED91FC910190F081E02DCA
:1001F000C7010995F3CF642F0E948800C801DF91E1
:10020000CF911F910F91FF90EF90DF90CF900895C5
:10021000CF93DF931F92CDB7DEB769832091790426
:100220002223F9F020919C04203258F021E030E0A4
:10023000FC013383228390E080E00F90DF91CF9127
:10024000089580919D04E82FF0E0E75AFB4F9981D3
:1002500090838F5F80939D0480939C0481E090E065
:10026000ECCF61E0CE0101960E948800F7CF90E0CC
:10027000FC01EE58FF4F2491FC01EA57FF4F3491E7
:10028000FC01EC55FF4FE491EE23C9F0222339F035
:10029000233001F1A8F4213019F1223029F1F0E0E6
:1002A000EE0FFF1FE656FF4FA591B4918FB7F8945C
:1002B000EC91611126C030953E233C938FBF089589
:1002C0002730A9F02830C9F0243049F78091800008
:1002D0008F7D03C0809180008F7780938000DFCF77
:1002E00084B58F7784BDDBCF84B58F7DFBCF8091C4
:1002F000B0008F778093B000D2CF8091B0008F7D17
:10030000F9CF3E2BDACF1092EC0481E08093EE041B
:100310001092ED0461E082E10E94370161E083E127
:100320000E943701E9EBF0E080818E7F808380813D
:100330008D7F808388E48093B80085E48093BC003F
:100340000895CF93DF9391E09093A3048823B9F0AD
:10035000C091B800D091BA008091BC008A7B809394
:10036000BC0060E082E10E94370160E083E10E940E
:1003700037010E948301D093BA00C093B800DF9187
:10038000CF910895CF93DF9390E0FC01EA57FF4FA0
:1003900024918C559F4FFC0184918823D1F090E0EB
:1003A000880F991FFC01E859FF4FA591B491FC01FA
:1003B000E656FF4FC591D49161110EC09FB7F894D6
:1003C0008C91E22FE0958E238C932881E223E883A1
:1003D0009FBFDF91CF9108958FB7F894EC91E22BF6
:1003E000EC938FBFF6CFCF9390911003891721F034
:1003F0009F3F51F1CF910895E8EBF0E0C491C7FD24
:10040000F9CF61E00E94C201CC2309F495C0C2304B
:1004100009F0A9C08091B100887F83608093B1000A
:1004200089EF8093B3008FEF9FEFDC018093170576
:1004300090931805A0931905B0931A058091700048
:10044000826080937000D6CF80931003E8EBF0E0D9
:10045000C491CF3F79F2C13039F148F0C23009F48C
:1004600045C0C7FDC7CF61E00E94C201D0CF14BC18
:1004700015BC94B5926094BD95B5916095BD282F3B
:1004800030E0F901EC55FF4FE491F0E0EE0FFF1F73
:10049000E656FF4F45915491F901EA57FF4FE49119
:1004A000E0931605C0E0ADCF10928000109281005D
:1004B000909181009860909381009091810091606B
:1004C00090938100282F30E0F901EC55FF4FE49123
:1004D000F0E0EE0FFF1FE656FF4F45915491F901F2
:1004E000EA57FF4FE491E09315058BCF1092B000CF
:1004F0001092B1009091B00092609093B0009091F2
:10050000B10091609093B100282F30E0F901EC55D3
:10051000FF4FE491F0E0EE0FFF1FE656FF4F4591CD
:1005200054915093140540931305F901EA57FF4F76
:10053000E491E093120565CF85B5887F836085BD22
:100540008CE787BD8FEF9FEFDC0180931F059093B1
:100550002005A0932105B093220580916E00826052
:1005600080936E0047CFC130E9F480918100887F8D
:100570008160809381008FE39FE190938900809355
:1005800088008FEF9FEFDC0180931B0590931C0583
:10059000A0931D05B0931E0580916F00826080932B
:1005A0006F0028CFC23021F0C11124CF8FE3C9CF13
:1005B0008FE337CF3FB7F89480915504909156045C
:1005C000A0915704B091580426B5A89B05C02F3FB1
:1005D00019F00196A11DB11D3FBFBA2FA92F982F69
:1005E0008827BC01CD01620F711D811D911D42E064
:1005F000660F771F881F991F4A95D1F708958F922C
:100600009F92AF92BF92CF92DF92EF92FF924B01F7
:100610005C010E94DA026B017C010E94DA026C1913
:100620007D098E099F09683E734081059105A8F3F5
:1006300021E0821A9108A108B10888EEC80E83E073
:10064000D81EE11CF11C81149104A104B10429F706
:10065000FF90EF90DF90CF90BF90AF909F908F90E2
:1006600008959091100389130BC0E8EBF0E0E4913A
:100670009FEF90931003E13049F028F0E23061F0F1
:1006800060E00C94370110926E00FACF90916F00E9
:100690009D7F90936F00F4CF909170009D7F909319
:1006A000700091E09093B0009091B100987F9460B9
:1006B0009093B1001092B300E3CFAF92BF92CF926C
:1006C000DF92EF92FF920F931F93CF93DF936C0112
:1006D0007B018B01040F151FEB015E01AE18BF08F3
:1006E000C017D10759F06991D601ED91FC910190A5
:1006F000F081E02DC6010995892B79F7C501DF91BD
:10070000CF911F910F91FF90EF90DF90CF90BF900E
:10071000AF900895FC01538D448D252F30E0842F38
:1007200090E0821B930B541710F0CF960895019719
:100730000895FC01918D828D981761F0A28DAE0F06
:10074000BF2FB11D5D968C91928D9F5F9F73928F8D
:1007500090E008958FEF9FEF0895FC01918D828DB9
:10076000981731F0828DE80FF11D858D90E0089586
:100770008FEF9FEF0895FC01918D228D892F90E0DE
:10078000805C9F4F821B91098F73992708958FE298
:1007900095E00E94BB0321E0892B09F420E0822F21
:1007A000089580E090E0892B29F00E94C703811111
:1007B0000C9400000895FC01A48DA80FB92FB11D61
:1007C000A35ABF4F2C91848D90E001968F73992787
:1007D000848FA689B7892C93A089B1898C91837065
:1007E00080648C93938D848D981306C00288F3895E
:1007F000E02D80818F7D80830895EF92FF920F938B
:100800001F93CF93DF93EC0181E0888F9B8D8C8DBC
:1008100098131AC0E889F989808185FF15C09FB7B0
:10082000F894EE89FF896083E889F9898081837073
:10083000806480839FBF81E090E0DF91CF911F9122
:100840000F91FF90EF900895F62E0B8D10E00F5F43
:100850001F4F0F731127E02E8C8D8E110CC00FB619
:1008600007FCFACFE889F989808185FFF5CFCE01B1
:100870000E94DB03F1CFEB8DEC0FFD2FF11DE35A4E
:10088000FF4FF0829FB7F8940B8FEA89FB89808134
:100890008062CFCFCF93DF93EC01888D8823B9F0AE
:1008A000AA89BB89E889F9898C9185FD03C080817B
:1008B00086FD0DC00FB607FCF7CF8C9185FFF2CFF8
:1008C000808185FFEDCFCE010E94DB03E9CFDF9170
:1008D000CF910895CF92DF92EF92FF920F931F93E3
:1008E000CF93DF93FC01C48121E020937904C0936E
:1008F000440410929D0410929C048485682B83E22A
:1009000095E00E940801D0919C04D13208F092C079
:100910000E94DA026B017C018091EC04811165C0B8
:1009200082E08093EC0481E08093EE048FEF80936B
:10093000EB0410921005D0930F05A9E5B4E0EFEE9B
:10094000F4E080E0D81385C0109211058091110564
:10095000CC0FC82BC09311058091ED04813009F0B4
:100960007CC01092ED040E94DA026B017C01809140
:1009700011058093BB0080919F049091A004A091E9
:10098000A104B091A204892B8A2B8B2B99F00E9491
:10099000DA0200919F041091A0042091A1043091EB
:1009A000A2046C197D098E099F09061717072807ED
:1009B0003907E0F18091BC0083FDD9CF85EC8093AD
:1009C000BC000E94DA026B017C018091EC04823051
:1009D00009F445C08091EB048F3F61F18091EB04F5
:1009E000803241F18091EB0425C080919F04909169
:1009F000A004A091A104B091A204892B8A2B8B2B77
:100A000009F48ACF0E94DA0200919F041091A00499
:100A10002091A1043091A2046C197D098E099F09CF
:100A2000061717072807390708F076CF80919E042C
:100A30000E94A10110929D0410929C0410927904CE
:100A4000DF91CF911F910F91FF90EF90DF90CF90AA
:100A500008959D9191938F5F75CF85EEB0CF809172
:100A60009F049091A004A091A104B091A204892BAD
:100A70008A2B8B2B09F4A9CF0E94DA0200919F04E4
:100A80001091A0042091A1043091A2046C197D0959
:100A90008E099F09061717072807390708F095CF11
:100AA000C5CF089590E080E00895DC011896FB0121
:100AB0002E912193A817B907D9F7089585ED809352
:100AC000BC0080919F049091A004A091A104B091DA
:100AD000A2040796A11DB11D23E0B695A795979591
:100AE00087952A95D1F72091BC0024FD03C0109270
:100AF000EC04089540919F045091A0046091A104DA
:100B00007091A204452B462B472B69F30097A10552
:100B1000B10541F02AE22A95F1F700C00197A10939
:100B2000B109E1CF80919E040C94A1010F931F9312
:100B3000CF938C01C62F0E946A046C2F6460C80199
:100B40000E946A046C2F6B7FC8010E946A0483ECC8
:100B500090E00197F1F7CF911F910F9108950F93B6
:100B60001F93CF93DF938C01D62FC42F607F642B0C
:100B70000E94960580E1D89FB00111246C2BC8011A
:100B8000DF91CF911F910F910C949605CF93DF9336
:100B9000CDB7DEB728970FB6F894DEBF0FBECDBF36
:100BA00098E0E7E1F3E0DE01119601900D929A954D
:100BB000E1F79091D405961708F46FEF262F30E0F7
:100BC000220F331F41E050E04C0F5D1F240F351FF3
:100BD000F9016081680F606840E08CEC95E0289630
:100BE0000FB6F894DEBF0FBECDBFDF91CF910C944E
:100BF000AF0540E061E08CEC95E00E94AF058BE32F
:100C00009FE10197F1F78091D505882321F060E0FD
:100C100080E00C94C605089541E00E94AF0581E094
:100C200090E008950F931F93CF93DF938B0198E08B
:100C3000899FB0011124606440E08CEC95E00E9433
:100C4000AF05E801085F1F4F69918CEC95E00E94A9
:100C50000C06C017D107C1F7DF91CF911F910F91FB
:100C60000895EF92FF920F931F93CF93DF93D82FA6
:100C700080E3E82E83E0F82E0FE113E0C0E060E0AF
:100C80008C2F0E94C605F70161917F0141E08CEC39
:100C900095E00E94AF0561E08C2F0E94C605F80127
:100CA00061918F0141E08CEC95E00E94AF05CF5F30
:100CB000CD13E5CFDF91CF911F910F91FF90EF9072
:100CC0000895FC0180819181009711F00C94CE135E
:100CD0000895FB0101900020E9F73197AF01461B11
:100CE000570BDC01ED91FC910280F381E02D09941A
:100CF0008F929F92AF92BF92EF92FF920F931F93AA
:100D0000CF93DF93CDB7DEB7A1970FB6F894DEBFD0
:100D10000FBECDBF7C01FA01CB0119A2223008F42D
:100D20002AE08E010F5D1F4F822E912CB12CA12C39
:100D3000BF01A50194010E94F412F901CA016A30B1
:100D40000CF5605DD8016E938D01232B242B252B90
:100D500079F790E080E0109721F0BD01C7010E9473
:100D60006906A1960FB6F894DEBF0FBECDBFDF9126
:100D7000CF911F910F91FF90EF90BF90AF909F90F8
:100D80008F900895695CDECF0C94690660E080E086
:100D90000E94C60561E773E08CEC95E00E94C406F2
:100DA00061E080E00E94C60561E773E08CEC95E0AD
:100DB0000C94C4060F931F93CF93DF93EC016CE365
:100DC00074E080E691E00E94550564E374E088E5F4
:100DD00091E00E9455056CE274E080E591E00E948C
:100DE000550564E274E088E491E00E9455056CE3E7
:100DF00074E080E00E94120664E374E081E00E94E7
:100E000012066CE274E082E00E94120664E274E072
:100E100083E00E9412060E94C6068E010A5F1F4FE1
:100E200061E0802F0E94C60560E08CEC95E00E9496
:100E30000C0660E08C2F8C5F0E94C60561E08CEC94
:100E400095E00E940C0660E08C2F8B5F0E94C60527
:100E500062E08CEC95E00E940C0660E0802F0E941E
:100E6000C60563E08CEC95E0DF91CF911F910F9167
:100E70000C940C060F931F93CF93DF93EC016CE35C
:100E800074E080E491E00E94550564E374E088E337
:100E900091E00E9455056CE274E080E391E00E94CD
:100EA000550564E274E088E291E00E9455056CE328
:100EB00074E080E00E94120664E374E081E00E9426
:100EC00012066CE274E082E00E94120664E274E0B2
:100ED00083E00E9412060E94C6068E010C5F1F4F1F
:100EE00061E0802F0E94C60560E08CEC95E00E94D6
:100EF0000C0661E08C2F8B5F0E94C60561E08CECD4
:100F000095E00E940C0660E08C2F8D5F0E94C60564
:100F100062E08CEC95E00E940C0660E0802F0E945D
:100F2000C60563E08CEC95E0DF91CF911F910F91A6
:100F30000C940C060F931F93CF93DF93EC0160E6A4
:100F400071E080E00E94120668E571E081E00E9495
:100F5000120660E571E082E00E94120668E471E02A
:100F600083E00E9412060E94C6068E010A5F1F4F90
:100F7000003111054CF460E0802F0E94C60560E04E
:100F80008CEC95E00E940C06CE0104968031910510
:100F900044F461E00E94C60561E08CEC95E00E949B
:100FA0000C06CE0105968031910544F461E00E9463
:100FB000C60562E08CEC95E00E940C06003111053C
:100FC0006CF461E0802F0E94C60563E08CEC95E034
:100FD000DF91CF911F910F910C940C06DF91CF916F
:100FE0001F910F9108950F931F93CF93DF93EC01FF
:100FF00060E471E080E00E94120668E371E081E045
:101000000E94120660E371E082E00E94120668E22C
:1010100071E083E00E9412060E94C6068E010C5FFA
:101020001F4F60E0802F0E94C60560E08CEC95E0C9
:101030000E940C06CE0105968031910541F060E0DA
:101040000E94C60561E08CEC95E00E940C0661E010
:101050008C2F8D5F0E94C60562E08CEC95E00E94AB
:101060000C0661E0802F0E94C60563E08CEC95E0E1
:10107000DF91CF911F910F910C940C0660E271E00B
:1010800080E00E94120668E171E081E00E94120691
:1010900060E171E082E00E94120668E071E083E0A6
:1010A0000E94120660E071E084E00E9412060E9435
:1010B000C60661E080E00E94C60560E08CEC95E029
:1010C0000E940C0661E081E00E94C60561E08CECA4
:1010D00095E00E940C0661E082E00E94C60562E095
:1010E0008CEC95E00E940C0661E083E00E94C6054E
:1010F00063E08CEC95E00E940C0661E084E00E94C5
:10110000C60564E08CEC95E00C940C06CF92DF925F
:10111000EF92FF92CF93DF93EC016B0162E873E0F3
:101120008FE295E00E94C4064C815D8168817981DF
:101130008FE295E00E945D036EE873E08FE295E038
:101140000E94C4060D2C000CEE08FF082AE0B7012F
:10115000A601F7FE0DC06DE28FE295E00E94FD034F
:1011600044275527BA014C195D096E097F092AE009
:101170008FE295E00E9478066FE973E08FE295E0D8
:101180000E94690661EA73E08FE295E0DF91CF91FA
:10119000FF90EF90DF90CF900C946906EF92FF9252
:1011A0000F931F93CF93DF93EC017B011982188279
:1011B0001B821A821D821C82FB0101900020E9F72C
:1011C00031978F01061B170BB8016F5F7F4F90E0BF
:1011D00080E00E9457140097B9F0998388831B839D
:1011E0000A832C813D81232B11F4FC0110821D8385
:1011F0000C83B70188819981DF91CF911F910F9165
:10120000FF90EF900C941D1588819981009711F043
:101210000E94CE13198218821D821C821B821A82A0
:10122000DF91CF911F910F91FF90EF9008951F9242
:101230000F920FB60F9211242F933F934F935F930A
:101240006F937F938F939F93AF93BF93EF93FF938E
:101250008091B900887F803609F44AC0F0F5883261
:1012600009F4A7C018F5803109F49BC0B8F48823AD
:1012700009F4F9C0883009F494C0FF91EF91BF914F
:10128000AF919F918F917F916F915F914F913F911E
:101290002F910F900FBE0F901F901895883109F471
:1012A00088C0803251F78093EB0414C0803409F475
:1012B0009DC040F48033B9F38833F9F68093EB0492
:1012C00085ECB0C0803509F485C0883509F496C036
:1012D000883499F60E945E05D0CF883909F48CC015
:1012E00038F5883729F050F4883611F0803729F620
:1012F00083E08093EC041092EA0457C0883809F424
:101300007BC0803919F0803809F0B7CF8091EA04AA
:10131000803208F071C0E091EA0481E08E0F809382
:10132000EA048091BB00F0E0E653FB4F80833DC0B0
:10133000803B39F0E0F4803A09F479C0883A09F04A
:101340009CCF84E08093EC041092C7041092C604F2
:10135000E091C404F091C50409958091C6048111FF
:101360000FC081E08093C6041092A40409C0803CA1
:1013700009F4A6CF883C09F4A3CF883B09F07DCFC0
:10138000E091C70481E08E0F8093C704F0E0EC5534
:10139000FB4F80818093BB009091C7048091C6046D
:1013A00029C0809111058093BB0085EC8093BC001F
:1013B00064CF9091100580910F05981758F5E09132
:1013C000100581E08E0F80931005F0E0E151FB4F96
:1013D0008081E9CFE091100581E08E0F80931005A8
:1013E0008091BB00F0E0E151FB4F808390911005AC
:1013F00080910F059817C8F285E8D8CFE0911005C5
:1014000081E08E0F809310058091BB00F0E0E151E8
:10141000FB4F80838091EE0481115CCF81E080934B
:10142000ED0484EA8093BC001092EC0426CF85EC96
:101430008093BC001092EC048091EA04803230F476
:10144000E091EA04F0E0E653FB4F10826091EA0479
:1014500070E0E091C804F091C9048AEC94E0099529
:101460001092EA040ACF1092EB0434CF1F920F922D
:101470000FB60F9211242F933F938F939F93AF93A7
:10148000BF938091510490915204A0915304B09164
:1014900054043091500423E0230F2D3758F5019662
:1014A000A11DB11D209350048093510490935204C8
:1014B000A0935304B0935404809155049091560422
:1014C000A0915704B09158040196A11DB11D8093BD
:1014D000550490935604A0935704B0935804BF91B9
:1014E000AF919F918F913F912F910F900FBE0F90D1
:1014F0001F90189526E8230F0296A11DB11DD2CF8B
:101500001F920F920FB60F9211242F933F934F9378
:101510005F936F937F938F939F93AF93BF93EF935B
:10152000FF938091170590911805A0911905B0912E
:101530001A05892B8A2B8B2BD1F190911205E09102
:101540001305F09114058081892780838091170508
:1015500090911805A0911905B0911A051816190651
:101560001A061B069CF48091170590911805A0910E
:101570001905B0911A050197A109B10980931705C2
:1015800090931805A0931905B0931A05FF91EF9158
:10159000BF91AF919F918F917F916F915F914F918B
:1015A0003F912F910F900FBE0F901F901895809133
:1015B00010030E943103EACF1F920F920FB60F92D1
:1015C00011242F933F934F935F936F937F938F9348
:1015D0009F93AF93BF93EF93FF938FE295E00E94A9
:1015E000DB03FF91EF91BF91AF919F918F917F911D
:1015F0006F915F914F913F912F910F900FBE0F9080
:101600001F9018951F920F920FB60F9211242F93CF
:101610008F939F93EF93FF93E0913F05F0914005E7
:101620008081E0914505F091460582FD1BC09081C7
:10163000809148058F5F8F7320914905821741F093
:10164000E0914805F0E0E15DFA4F958F8093480501
:10165000FF91EF919F918F912F910F900FBE0F905F
:101660001F9018958081F4CFE3E2F5E01382128297
:1016700088EE93E0A0E0B0E084839583A683B783EF
:1016800025E433E031832083EFE2F5E01382128218
:1016900084839583A683B78387E593E091838083D2
:1016A00085EC90E09587848784EC90E09787868727
:1016B00080EC90E0918B808B81EC90E0938B828B1F
:1016C00082EC90E0958B848B86EC90E0978B868BF8
:1016D000118E128E138E148EECECF5E013821282B2
:1016E00089E693E091838083118687E2848380E199
:1016F000828782E0838714860895CF93DF9300D09A
:1017000000D000D0CDB7DEB7789484B5826084BDB8
:1017100084B5816084BD85B5826085BD85B58160F5
:1017200085BD80916E00816080936E001092810073
:10173000809181008260809381008091810081602E
:1017400080938100809180008160809380008091EF
:10175000B10084608093B1008091B000816080937B
:10176000B00080917A00846080937A0080917A0042
:10177000826080937A0080917A00816080937A0001
:1017800080917A00806880937A001092C10061E0B5
:101790008DE00E94C20161E08AE00E94C20161E026
:1017A00089E00E94C20161E088E00E94C20160E01D
:1017B0008EE00E94C201E0913F05F091400582E079
:1017C0008083E0913B05F0913C051082E0913D055E
:1017D000F0913E058FEC808310924705E091430520
:1017E000F091440586E08083E0914105F091420547
:1017F000808180618083E0914105F0914205808184
:1018000088608083E0914105F09142058081806885
:101810008083E0914105F091420580818F7D808336
:1018200010929B0410929A0410929D0410929C04B2
:101830000E9483018FEA90E09093C5048093C404D2
:1018400080EB90E09093C9048093C8041092D10576
:101850008091D705823018F098E09093D10580935D
:10186000D40562E370E080E090E00E94FF026091A6
:10187000D8058CEC95E00E946A0468EE73E080E085
:1018800090E00E94FF0260E38CEC95E00E949605D8
:101890000BE416E4C8010197F1F760E38CEC95E0E6
:1018A0000E949605C8010197F1F760E38CEC95E082
:1018B0000E94960583E592E00197F1F760E28CECD7
:1018C00095E00E9496056091D105606240E08CEC45
:1018D00095E00E94AF0584E08093D20540E06CE083
:1018E0008CEC95E00E94AF050E94F90582E08093A0
:1018F000D30540E066E08CEC95E00E94AF0540E047
:1019000062E08CEC95E00E94AF058BE39FE10197CC
:10191000F1F788E08093D80560E08CEC95E00E94B8
:101920006A0460EA71E080E00E94120668E971E0F2
:1019300081E00E94120660E971E082E00E941206D6
:1019400068E871E083E00E94120660E871E084E0DC
:101950000E94120668E771E085E00E94120660E7C7
:1019600071E086E00E94120668E671E087E00E945E
:1019700012060E94C60660E080E00E94C60560E094
:101980008CEC95E00E940C0660E081E00E94C605A8
:1019900061E08CEC95E00E940C0660E082E00E9421
:1019A000C60562E08CEC95E00E940C0660E083E0E6
:1019B0000E94C60563E08CEC95E00E940C0660E096
:1019C00084E00E94C60564E08CEC95E00E940C0661
:1019D00061E080E00E94C60565E08CEC95E00E9425
:1019E0000C0661E081E00E94C60566E08CEC95E0A3
:1019F0000E940C0661E082E00E94C60567E08CEC64
:101A000095E00E940C066CEB72E080E090E00E9492
:101A1000FF0268ED71E080E00E94120660ED71E067
:101A200081E00E94120668EC71E082E00E941206DA
:101A300060EC71E083E00E94120668EB71E084E0E4
:101A40000E94120660EB71E085E00E94120668EACF
:101A500071E086E00E9412060E94C60660E080E007
:101A60000E94C60560E08CEC95E00E940C0660E0E8
:101A700081E00E94C60561E08CEC95E00E940C06B6
:101A800060E082E00E94C60562E08CEC95E00E9476
:101A90000C0660E083E00E94C60563E08CEC95E0F4
:101AA0000E940C0660E084E00E94C60564E08CECB5
:101AB00095E00E940C0661E080E00E94C60565E0AA
:101AC0008CEC95E00E940C0661E081E00E94C60566
:101AD00066E08CEC95E00E940C0664EB70E080E020
:101AE00090E00E94FF0268E072E080E00E9412062F
:101AF00060E072E081E00E94120668EF71E082E02F
:101B00000E94120660EF71E083E00E94120668EE08
:101B100071E084E00E94120660EE71E085E00E94B0
:101B200012060E94C60660E082E00E94C60560E0E0
:101B30008CEC95E00E940C0660E083E00E94C605F4
:101B400061E08CEC95E00E940C0661E080E00E9470
:101B5000C60562E08CEC95E00E940C0661E081E035
:101B60000E94C60563E08CEC95E00E940C0661E0E3
:101B700082E00E94C60564E08CEC95E00E940C06B1
:101B800061E083E00E94C60565E08CEC95E00E9470
:101B90000C0664EB70E080E090E00E94FF0268E3D6
:101BA00072E080E00E94120660E372E081E00E9431
:101BB000120668E272E082E00E94120660E272E0C1
:101BC00083E00E94120668E172E084E00E9412063F
:101BD00060E172E085E00E9412060E94C60660E0A5
:101BE00082E00E94C60560E08CEC95E00E940C0645
:101BF00060E083E00E94C60561E08CEC95E00E9405
:101C00000C0661E080E00E94C60562E08CEC95E085
:101C10000E940C0661E081E00E94C60563E08CEC46
:101C200095E00E940C0661E082E00E94C60564E037
:101C30008CEC95E00E940C0661E083E00E94C605F2
:101C400065E08CEC95E00E940C066EE571E080E0AA
:101C500090E00E94FF020E943E086AEF70E080E080
:101C600090E00E94FF020E943E086EE571E080E075
:101C700090E00E94FF0290E080E00E94F3076AEA91
:101C800070E080E090E00E94FF0290E080E00E941F
:101C90009A076CE870E080E090E00E94FF0282E02A
:101CA00090E00E943A0766E970E080E090E00E94D0
:101CB000FF0283E090E00E94DA0662E870E080E0D4
:101CC00090E00E94FF0285E090E00E94F30766E941
:101CD00070E080E090E00E94FF0286E090E00E94C9
:101CE0009A0762E870E080E090E00E94FF0288E0DE
:101CF00090E00E943A076CE870E080E090E00E947B
:101D0000FF0289E090E00E94DA0668E770E080E078
:101D100090E00E94FF028BE090E00E94F30762E8EF
:101D200070E080E090E00E94FF028DE090E00E9471
:101D30009A0764E670E080E090E00E94FF020E9453
:101D4000C60660E570E080E090E00E94FF0268E473
:101D500072E080E00E94120660E472E081E00E947E
:101D600012060E94C60661E080E00E94C60560E09F
:101D70008CEC95E00E940C0661E081E00E94C605B3
:101D800061E08CEC95E00E940C0660E570E080E07C
:101D900090E00E94FF0260E672E080E00E9412067E
:101DA00068E572E081E00E94120660E572E082E080
:101DB0000E9412060E94C60661E080E00E94C605ED
:101DC00060E08CEC95E00E940C0661E081E00E94EE
:101DD000C60561E08CEC95E00E940C0661E082E0B3
:101DE0000E94C60562E08CEC95E00E940C0660E55E
:101DF00070E080E090E00E94FF0260E872E080E026
:101E00000E94120668E772E081E00E94120660E715
:101E100072E082E00E94120668E672E083E00E94AF
:101E200012060E94C60661E081E00E94C60560E0DD
:101E30008CEC95E00E940C0661E082E00E94C605F1
:101E400061E08CEC95E00E940C0660E082E00E946C
:101E5000C60562E08CEC95E00E940C0660E083E031
:101E60000E94C60563E08CEC95E00E940C0664E6D7
:101E700070E080E090E00E94FF0260EC72E080E0A1
:101E80000E94120668EB72E081E00E94120660EB8D
:101E900072E082E00E94120668EA72E083E00E942B
:101EA000120660EA72E084E00E94120668E972E0BD
:101EB00085E00E94120660E972E086E00E94120648
:101EC00068E872E087E00E9412060E94C60660E0A1
:101ED00082E00E94C60560E08CEC95E00E940C0652
:101EE00060E083E00E94C60561E08CEC95E00E9412
:101EF0000C0660E087E00E94C60562E08CEC95E08D
:101F00000E940C0661E080E00E94C60563E08CEC54
:101F100095E00E940C0661E081E00E94C60564E045
:101F20008CEC95E00E940C0661E083E00E94C605FF
:101F300065E08CEC95E00E940C0661E08AE00E946E
:101F4000C60566E08CEC95E00E940C0661E08BE033
:101F50000E94C60567E08CEC95E00E940C0666E9DD
:101F600070E080E090E00E94FF0260EE72E080E0AE
:101F70000E94120668ED72E081E00E94120660ED98
:101F800072E082E00E94120668EC72E083E00E9438
:101F900012060E94C60685E090E00E94310661E0CC
:101FA00088E00E94C60560E08CEC95E00E940C067B
:101FB00061E089E00E94C60561E08CEC95E00E943A
:101FC0000C0660E08AE00E94C60562E08CEC95E0B9
:101FD0000E940C0660E08BE00E94C60563E08CEC7A
:101FE00095E00E940C0664E670E080E090E00E94BC
:101FF000FF0268EF72E080E00E94120660EF72E07C
:1020000081E00E94120668EE72E082E00E941206F1
:102010000E94C6068AE090E00E94310660E08BE0F4
:102020000E94C60560E08CEC95E00E940C0660E022
:102030008CE00E94C60561E08CEC95E00E940C06E5
:1020400060E08DE00E94C60562E08CEC95E00E94A5
:102050000C0660E570E080E090E00E94FF0268E01E
:1020600073E080E00E94120660E073E081E00E946D
:1020700012060E94C6068EE090E00E94310660E0E3
:102080008EE00E94C60560E08CEC95E00E940C0694
:1020900060E08FE00E94C60561E08CEC95E00E9454
:1020A0000C0660E570E080E090E00E94FF020E9474
:1020B000C60660E083E00E94C60564EA73E08CEC2B
:1020C00095E00E94C40661E086E00E94C6056EEAC3
:1020D00073E08CEC95E00E94C40660ED77E080E050
:1020E00090E00E94FF020E94F90560E082E00E94F9
:1020F000C60563EB73E08CEC95E00E94C40661E0DA
:1021000082E00E94C6056DEB73E08CEC95E00E94C6
:10211000C40660ED77E080E090E00E94FF020E943C
:10212000F90561E085E00E94C6056BEC73E08CEC7C
:1021300095E00E94C40668E572E080E090E00E94AD
:10214000FF020E94F90560E085E00E94C6056BEC85
:1021500073E08CEC95E00E94C40668E572E080E0D4
:1021600090E00E94FF020E94F90560E085E00E9475
:10217000C6056BEC73E08CEC95E00E94C40661E050
:1021800081E00E94C60561ED73E08CEC95E00E9451
:10219000C40668EE73E080E090E00E94FF020E94B7
:1021A000F90560E081E00E94C60561ED73E08CEC0A
:1021B00095E00E94C40660EB74E080E090E00E942D
:1021C000FF020E94F90564EF71E080E090E00E9458
:1021D000FF0260E080E00E94C6056FED73E08CECCA
:1021E00095E00E94C40661E080E00E94C60564EEAE
:1021F00073E08CEC95E00E94C40690E4392E4424F0
:102200004A9423E0522E612C712C00E010E08AE009
:10221000E82EF12C812C912C540130927C0080917D
:102220007A00806480937A0080917A0086FDFCCFEA
:102230008091780090917900092E000CAA0BBB0BBD
:10224000880E991EAA1EBB1E6AE070E080E090E036
:102250000E94FF0221E0E21AF108F9F6C501B4017B
:102260006B5F7F4F8F4F9F4F2AE030E040E050E0A0
:102270000E949E12D90124E630E00E942513A3019A
:1022800092010E949E1269017A0130934F042093BB
:102290004E0460E085E00E94C6052AE0B701A60171
:1022A000F7FE0EC041E06DE28CEC95E00E94AF05B8
:1022B00044275527BA014C195D096E097F092AE0A8
:1022C0008CEC95E00E9478066CEE73E08CEC95E067
:1022D0000E94C406E0904E04F0904F048AE1E81694
:1022E000F1040CF05FC060E089E00E94370160E01B
:1022F0008AE00E94370161E08DE00E94370188E0AA
:102300000E94310361EF73E0CE0101960E94CE0876
:10231000B701CE0101960E948608CE0101960E9467
:10232000610661E088E00E94C60567EF73E08CEC0F
:1023300095E00E94C40680914D04882309F12FB7CF
:10234000F8948091510490915204A0915304B0915B
:1023500054042FBF409145045091460460914704B6
:1023600070914804841B950BA60BB70B883B9B40D0
:10237000A105B10528F088E00E94310310924D04B8
:1023800064E670E080E090E00E94FF020115110514
:1023900009F43DCF0E94C703882309F438CF0E9477
:1023A000000035CF2AE1E21AF10886E3E816F104CD
:1023B00008F077C061E08AE00E94370160E08DE0BC
:1023C0000E94370160E089E00E94370161E088E007
:1023D0000E94C60560E074E08CEC95E00E94C406A3
:1023E000E0904E04F0904F0469E074E0CE01019655
:1023F0000E94CE08B701CE0101960E948608CE0148
:1024000001960E94610680914D04811198CF2FB7EB
:10241000F8948091510490915204A0915304B0918A
:1024200054042FBF4091490450914A0460914B04D9
:1024300070914C04841B950BA60BB70B8838934105
:10244000A105B10508F477CF88E00E94F3012FB70A
:10245000F8948091510490915204A0915304B0914A
:1024600054042FBF8093450490934604A0934704DF
:10247000B09348042FB7F89480915104909152047E
:10248000A0915304B09154042FBF809349049093BA
:102490004A04A0934B04B0934C0481E080934D0414
:1024A0004ACF60E08DE00E94370160E08AE00E9440
:1024B000370161E089E00E94370161E088E00E9415
:1024C000C60561E174E08CEC95E00E94C4066AEFF9
:1024D00070E080E090E00E94FF0261E088E00E94EE
:1024E000C6056BE773E08CEC95E00E94C4066CE2D5
:1024F00071E080E090E00E94FF0280914D04811124
:1025000009C088E00E94F3016CE271E080E090E095
:102510000E94FF02E0904E04F0904F046AE174E0E4
:10252000CE0101960E94CE08B701CE0101960E940D
:102530008608CE0101960E946106FDCE052E97FB0E
:102540001EF400940E94B51257FD07D00E94F412A9
:1025500007FC03D04EF40C94B5125095409530957D
:1025600021953F4F4F4F5F4F0895909580957095FF
:1025700061957F4F8F4F9F4F08952F923F924F92BB
:102580005F926F927F928F929F92AF92BF92CF9203
:10259000DF92EF92FF920F931F93CF93DF93CDB70C
:1025A000DEB7CA1BDB0B0FB6F894DEBF0FBECDBF84
:1025B00009942A88398848885F846E847D848C8455
:1025C0009B84AA84B984C884DF80EE80FD800C815E
:1025D0001B81AA81B981CE0FD11D0FB6F894DEBF41
:1025E0000FBECDBFED010895A1E21A2EAA1BBB1BA1
:1025F000FD010DC0AA1FBB1FEE1FFF1FA217B307CF
:10260000E407F50720F0A21BB30BE40BF50B661FE4
:10261000771F881F991F1A9469F7609570958095A8
:1026200090959B01AC01BD01CF010895A29FB0011F
:10263000B39FC001A39F700D811D1124911DB29FF6
:10264000700D811D1124911D08950E941613B7FF6E
:102650000895821B930B0895EE0FFF1F0590F491D0
:10266000E02D09940F931F93CF93DF938230910550
:1026700010F482E090E0E091DB05F091DC0530E0C1
:1026800020E0B0E0A0E0309799F42115310509F47D
:102690004AC0281B390B24303105D8F58A819B812B
:1026A0006115710589F1FB0193838283FE0111C0DD
:1026B000408151810281138148175907E0F0481782
:1026C000590799F4109761F012960C93129713968C
:1026D0001C933296CF01DF91CF911F910F910895F6
:1026E0000093DB051093DC05F4CF2115310551F083
:1026F0004217530738F0A901DB019A01BD01DF0140
:10270000F801C1CFEF01F9CF9093DC058093DB0591
:10271000CDCFFE01E20FF31F819391932250310937
:1027200039832883D7CF2091D9053091DA05232B1F
:1027300041F420911303309114033093DA05209370
:10274000D90520911103309112032115310541F46F
:102750002DB73EB74091150350911603241B350B3E
:10276000E091D905F091DA05E217F307A0F42E1BEA
:102770003F0B2817390778F0AC014E5F5F4F2417E5
:10278000350748F04E0F5F1F5093DA054093D90587
:10279000819391939FCFF0E0E0E09CCFCF93DF93C4
:1027A0000097E9F0FC01329713821282A091DB05B9
:1027B000B091DC05ED0130E020E01097A1F420811C
:1027C0003181820F931F2091D9053091DA052817A6
:1027D000390709F061C0F093DA05E093D905DF917C
:1027E000CF910895EA01CE17DF07E8F54A815B81B2
:1027F0009E0141155105B1F7E901FB83EA83499137
:102800005991C40FD51FEC17FD0761F480819181A8
:102810000296840F951FE9019983888382819381B1
:102820009B838A83F0E0E0E012968D919C91139750
:102830000097B9F52D913C911197CD010296820F29
:10284000931F2091D9053091DA052817390739F6F9
:10285000309751F51092DC051092DB05B093DA0544
:10286000A093D905BCCFD383C28340815181840F0B
:10287000951FC817D90761F44E5F5F4F8881998112
:10288000480F591F518340838A819B8193838283A0
:102890002115310509F0B0CFF093DC05E093DB059D
:1028A0009ECFFD01DC01C0CF13821282D7CFB0E0F2
:1028B000A0E0EDE5F4E10C94BF128C01009751F417
:1028C000CB010E9432138C01C801CDB7DEB7E0E125
:1028D0000C94DB12FC01E60FF71F9C01225031091A
:1028E000E217F30708F49DC0D901CD91DC9111974F
:1028F000C617D70798F0C530D10530F3CE0104973D
:102900008617970708F3C61BD70B2297C193D1935D
:102910006D937C93CF010E94CE13D6CF5B01AC1A8E
:10292000BD0A4C018C0E9D1EA091DB05B091DC050B
:10293000512C412CF12CE12C109731F58091D905C7
:102940009091DA058815990509F05CC0461657067E
:1029500008F058C08091110390911203009741F440
:102960008DB79EB74091150350911603841B950BAC
:10297000E817F90708F055C0F093DA05E093D90598
:10298000F90171836083A0CF8D919C91119712966C
:102990006C90129713967C901397A815B90559F56A
:1029A0006C0142E0C40ED11CCA14DB0420F1AC015E
:1029B0004A195B09DA011296159780F062827382D8
:1029C00051834083D9016D937C93E114F10471F03C
:1029D000D7011396FC93EE93129776CF22968C0F25
:1029E0009D1FF90191838083F301EFCFF093DC0504
:1029F000E093DB0569CF4816590608F42C017D01E8
:102A0000D3019ACFCB010E9432137C01009749F089
:102A1000AE01B8010E941415C8010E94CE138701AF
:102A200053CF10E000E050CFFB01DC0102C0019069
:102A30000D9241505040D8F70895FB01DC01019000
:0C2A40000D920020E1F70895F894FFCFFC
:102A4C00001A0408100000000C13011401021C00F1
:102A5C0000011A05020100000000071C1000000014
:102A6C00000000071F1F1C00190E000000000000D2
:102A7C0000010200000000000000081808081010F7
:102A8C000000000001020C101810000000000000F3
:102A9C001F031E00000000000007000000000000E3
:102AAC0000000000000004081800101800000000CE
:102ABC00030F1F1C100000001C1C1F1F1F1F1E1FBC
:102ACC0000000018160119070000000001031F1078
:102ADC00000000010302061F1A1E1810000000005F
:102AEC001E1E1F1F1E1C1C1C01070F1E1810000091
:102AFC00181C1E1F1F1E1C1800000010180C0603AB
:102B0C000000000103071C100000000307060C1C4A
:102B1C00181C1E18100000001C1E1F1F1E1C181055
:102B2C0000040C1A0E0400000010181C0E06000005
:102B3C000000031E181000000000010F1F1E1800DB
:102B4C00000000000010180800000000010307043A
:102B5C000412190E0000000008111E0000000000F5
:102B6C000000071C10000000000000071F1F1C00C5
:102B7C00000000000000100800000000000003042A
:102B8C000000000000010618000000000000010613
:102B9C0000000000100804020000000106081000EC
:102BAC0000000000010204180102040810000000DB
:102BBC0000010204081000000000010204081000CB
:102BCC0000000000010204080004081000000000CE
:102BDC000000000003020408000000000F000000C9
:102BEC000102041800001806000000001F1E01005E
:102BFC00000000000106081004081010000000007E
:102C0C000000000001020C1004081000000000007D
:102C1C00020408100000000001020408100000006B
:102C2C00000102040810000001020408100000005A
:102C3C00000102040810000000000102040810004A
:102C4C00010204081000000000000001020408103A
:102C5C00FF0000DD0580000000400014005400203F
:102C6C0020202020205445414D20202020202000D1
:102C7C0020202043414C4D20544543482020202007
:102C8C0000000000000801DB005205B100D400C1B7
:102C9C0000B20000000000FD035D038A034A04BB80
:102CAC00039903AD03000000000C065D03520551AF
:102CBC000520202020202020202020202020202023
:102CCC0020007B2265737461646F223A2200222CEF
:102CDC0022706F7263656E746167656D223A007D58
:102CEC00000D0A0043414C4D2054454348005445C7
:102CFC00414D00496E696369616E646F006D6F6E62
:102D0C0069746F72616D656E746F0053656A616D85
:102D1C000042656D2D76696E646F73286129004CD5
:102D2C00757A3A005374617475733A00252020202B
:102D3C00005645524445004F4B20202020202000B7
:102D4C00416C65727461202000414D4152454C4FDD
:102D5C00004552524F52212020005645524D454CB1
:042D6C00484F0000CC
:00000001FF
